:100000000C942A000C9447000C9447000C94470071
:100010000C9447000C9447000C9447000C94310456
:100020000C9458040C947F040C9447000C944700E3
:100030000C9447000C9447000C9447000C94470024
:100040000C9447000C9447000C9447000C94470014
:100050000C94470011241FBECFE5D8E0DEBFCDBF12
:1000600010E0A0E6B0E0E6EAFDE002C005900D92E7
:10007000A03BB107D9F720E0A0EBB0E001C01D9292
:10008000A63BB207E1F70E943C010C94D1060C9408
:1000900000000E94120308950E947E03089561E00B
:1000A00080E10E948D0160E081E10E948D0161E0AC
:1000B00082E10E948D0160E083E10E948D0161E098
:1000C00088E00E948D0160E089E00E948D0161E07E
:1000D0008AE00E948D0160E08BE00E948D0108950E
:1000E00060E080E10E948D0161E081E10E948D016C
:1000F00060E082E10E948D0161E083E10E948D0158
:1001000060E088E00E948D0161E089E00E948D013D
:1001100060E08AE00E948D0161E08BE00E948D0129
:10012000089560E080E10E948D0161E081E10E941C
:100130008D0160E082E10E948D0161E083E10E9417
:100140008D0161E088E00E948D0160E089E00E94FD
:100150008D0161E08AE00E948D0160E08BE00E94E9
:100160008D01089561E080E10E948D0160E081E1F0
:100170000E948D0161E082E10E948D0160E083E1D7
:100180000E948D0160E088E00E948D0161E089E0BD
:100190000E948D0160E08AE00E948D0161E08BE0A9
:1001A0000E948D01089560E080E10E948D0160E071
:1001B00081E10E948D0160E082E10E948D0160E09A
:1001C00083E10E948D0160E088E00E948D0160E083
:1001D00089E00E948D0160E08AE00E948D0160E06C
:1001E0008BE00E948D0108951F93CF93DF93CDB7CD
:1001F000DEB728970FB6F894DEBF0FBECDBF182F1D
:1002000061E08DE10E940F028FEF9FEF0E942E04AC
:10021000612F70E080E090E00E94B40520E030E0C3
:1002200048EC52E40E94130520E030E040E857E437
:100230000E94420620E030E040E85FE30E94A6040E
:100240000E948505CB010E942B0488E0E0EAF0E0E3
:10025000DE01119601900D928A95E1F7CE0101968B
:100260000E94820328960FB6F894DEBF0FBECDBF62
:10027000DF91CF911F910895CF93DF93CDB7DEB774
:1002800028970FB6F894DEBF0FBECDBF0E94910233
:1002900061E08DE10E948D0189E10E94F40060E03F
:1002A00088E10E940F0288E0E8EAF0E0DE011196A2
:1002B00001900D928A95E1F7CE0101960E944900C6
:1002C00009E110E00E944C008634C1F028F4882334
:1002D00009F18234B1F0F6CF8235B1F0833519F0EF
:1002E0008C3481F714C0143048F4075E1F5F802FF0
:1002F0000E94F400133011F409E110E00E944F0055
:10030000E1CF0E947000DECF0E949100DBCF0E94FF
:10031000B200D8CF0E94D300D5CF982F9770869582
:1003200086958695813021F130F08230F1F183306D
:1003300009F458C00895613069F44BB321E030E00E
:10034000B90102C0660F771F9A95E2F7CB01842BA3
:100350008BBB08954BB321E030E0B90102C0660FBA
:10036000771F9A95E2F7CB01809584238BBB089584
:10037000613069F448B321E030E0B90102C0660F92
:10038000771F9A95E2F7CB01842B88BB089548B379
:1003900021E030E0B90102C0660F771F9A95E2F7BD
:1003A000CB018095842388BB0895613069F445B3FF
:1003B00021E030E0B90102C0660F771F9A95E2F79D
:1003C000CB01842B85BB089545B321E030E0B90112
:1003D00002C0660F771F9A95E2F7CB0180958423C0
:1003E00085BB0895613069F442B321E030E0B90182
:1003F00002C0660F771F9A95E2F7CB01842B82BB70
:10040000089542B321E030E0B90102C0660F771FC2
:100410009A95E2F7CB018095842382BB0895982FAB
:100420009770869586958695813021F130F08230DF
:10043000F1F1833009F458C00895613069F44AB38A
:1004400021E030E0B90102C0660F771F9A95E2F70C
:10045000CB01842B8ABB08954AB321E030E0B90177
:1004600002C0660F771F9A95E2F7CB01809584232F
:100470008ABB0895613069F447B321E030E0B901E7
:1004800002C0660F771F9A95E2F7CB01842B87BBDA
:10049000089547B321E030E0B90102C0660F771F2D
:1004A0009A95E2F7CB018095842387BB089561304C
:1004B00069F444B321E030E0B90102C0660F771F50
:1004C0009A95E2F7CB01842B84BB089544B321E0D5
:1004D00030E0B90102C0660F771F9A95E2F7CB01B1
:1004E0008095842384BB0895613069F441B321E091
:1004F00030E0B90102C0660F771F9A95E2F7CB0191
:10050000842B81BB089541B321E030E0B90102C0E2
:10051000660F771F9A95E2F7CB018095842381BB04
:100520000895E0E6F0E080E041E050E0282F2770F9
:10053000982F969596959695913009F130F09230D6
:10054000C1F1933009F44FC067C09081913059F4E4
:100550009AB3BA0102C0660F771F2A95E2F79B0192
:10056000292B2ABB59C03AB3BA0102C0660F771FC4
:100570002A95E2F7962F909593239ABB4DC09081D0
:10058000913059F497B3BA0102C0660F771F2A95CC
:10059000E2F79B01292B27BB3FC037B3BA0102C04A
:1005A000660F771F2A95E2F7962F9095932397BBB6
:1005B00033C09081913059F494B3BA0102C0660FF0
:1005C000771F2A95E2F79B01292B24BB25C034B362
:1005D000BA0102C0660F771F2A95E2F7962F909511
:1005E000932394BB19C09081913059F491B3BA010F
:1005F00002C0660F771F2A95E2F79B01292B21BBCA
:100600000BC031B3BA0102C0660F771F2A95E2F71B
:10061000962F9095932391BB8F5F3296803209F08D
:1006200085CF0895CF93DF93EC018A818130E9F47F
:10063000599A28813981C901A0E0B0E0880F991F3B
:10064000AA1FBB1F880F991FAA1FBB1F9C01AD01CA
:10065000220F331F441F551F60E074E284EF90E0C7
:100660000E94AF062150310920C059982881398154
:10067000C901A0E0B0E0880F991FAA1FBB1F880F17
:10068000991FAA1FBB1F9C01AD01220F331F441FDE
:10069000551F220F331F441F551F60E074E284EF83
:1006A00090E00E94AF062150310929B930BD9B81ED
:1006B000973029F080B5990F8068892B80BD80B56F
:1006C0009C81990F990F990F8068892B80BD20B567
:1006D0009D8130E1939FC0011124922F9068892B56
:1006E00080BD8E8180FD539A80FF53988F8180FD5D
:1006F000549A80FF5498DF91CF9108955F9BFECF6D
:100700008CB10895FC018081813099F028F082300D
:10071000E9F0833041F133C08FB58E7F8FBD8FB547
:100720008D7F8FBD8EB5877F8EBD8EB58F7E8EBD42
:1007300026C08FB58E7F8FBD8FB58D7F8FBD8EB557
:1007400088608EBD8EB58F7E8EBD19C08FB58E7FB1
:100750008FBD8FB582608FBD8EB588608EBD8EB522
:1007600080618EBD0CC08FB58E7F8FBD8FB58260CE
:100770008FBD8EB5877F8EBD8EB580618EBD818128
:10078000823001F128F4882349F0813089F041C09A
:10079000843061F108F1853099F13BC08EB58E7FD0
:1007A0008EBD8EB58D7F8EBD8EB58B7F8EBD31C0DB
:1007B0008EB581608EBD8EB58D7F8EBD8EB58B7FE3
:1007C0008EBD27C08EB58E7F8EBD8EB582608EBDEC
:1007D0008EB58B7F8EBD1DC08EB581608EBD8EB5F2
:1007E00082608EBD8EB58B7F8EBD13C08EB58E7F21
:1007F0008EBD8EB58D7F8EBD8EB584608EBD09C0D9
:100800008EB581608EBD8EB58D7F8EBD8EB58460B8
:100810008EBD8281823059F0833081F0811114C005
:100820008FB58F7B8FBD8FB58F778FBD0DC08FB587
:100830008F7B8FBD8FB580688FBD06C08FB58F7BD6
:100840008FBD8FB58F778FBD99B78781880F880F40
:10085000892B89BF08959BBD8ABD089597BD86BD2C
:1008600008951F920F920FB60F9211242F933F936A
:100870004F935F936F937F938F939F93AF93BF93A8
:10088000EF93FF93E091B400F091B5000995FF91CB
:10089000EF91BF91AF919F918F917F916F915F91F8
:1008A0004F913F912F910F900FBE0F901F90189571
:1008B0001F920F920FB60F9211242F933F934F93D5
:1008C0005F936F937F938F939F93AF93BF93EF93B8
:1008D000FF93E091B200F091B3000995FF91EF9181
:1008E000BF91AF919F918F917F916F915F914F9148
:1008F0003F912F910F900FBE0F901F9018951F9250
:100900000F920FB60F9211242F933F934F935F9343
:100910006F937F938F939F93AF93BF93EF93FF93C7
:10092000E091B000F091B1000995FF91EF91BF9176
:10093000AF919F918F917F916F915F914F913F9177
:100940002F910F900FBE0F901F9018955058BB27F6
:10095000AA270E94BE040C9408060E94FA0538F0EB
:100960000E94010620F039F49F3F19F426F40C94FC
:10097000F7050EF4E095E7FB0C94F105E92F0E94D2
:10098000190658F3BA17620773078407950720F012
:1009900079F4A6F50C943B060EF4E0950B2EBA2FD5
:1009A000A02D0B01B90190010C01CA01A001112475
:1009B000FF27591B99F0593F50F4503E68F11A1621
:1009C000F040A22F232F342F4427585FF3CF4695B2
:1009D00037952795A795F0405395C9F77EF41F16D4
:1009E000BA0B620B730B840BBAF09150A1F0FF0F9E
:1009F000BB1F661F771F881FC2F70EC0BA0F621F8A
:100A0000731F841F48F4879577956795B795F79579
:100A10009E3F08F0B0CF9395880F08F09927EE0F0E
:100A20009795879508950E9427050C9408060E94C3
:100A3000010658F00E94FA0540F029F45F3F29F0C2
:100A40000C94F10551110C943C060C94F7050E948E
:100A5000190668F39923B1F3552391F3951B550BB0
:100A6000BB27AA2762177307840738F09F5F5F4F81
:100A7000220F331F441FAA1FA9F335D00E2E3AF0C0
:100A8000E0E832D091505040E695001CCAF72BD0D8
:100A9000FE2F29D0660F771F881FBB1F2617370729
:100AA0004807AB07B0E809F0BB0B802DBF01FF275B
:100AB00093585F4F3AF09E3F510578F00C94F10542
:100AC0000C943C065F3FE4F3983ED4F3869577950B
:100AD0006795B795F7959F5FC9F7880F911D969514
:100AE000879597F90895E1E0660F771F881FBB1F70
:100AF000621773078407BA0720F0621B730B840B1D
:100B0000BA0BEE1F88F7E09508950E94210688F041
:100B10009F5798F0B92F9927B751B0F0E1F0660FC1
:100B2000771F881F991F1AF0BA95C9F714C0B13002
:100B300091F00E943B06B1E008950C943B06672FAC
:100B4000782F8827B85F39F0B93FCCF38695779531
:100B50006795B395D9F73EF490958095709561951A
:100B60007F4F8F4F9F4F0895E89409C097FB3EF445
:100B700090958095709561957F4F8F4F9F4F9923EA
:100B8000A9F0F92F96E9BB279395F6958795779568
:100B90006795B795F111F8CFFAF4BB0F11F460FF28
:100BA0001BC06F5F7F4F8F4F9F4F16C0882311F080
:100BB00096E911C0772321F09EE8872F762F05C094
:100BC000662371F096E8862F70E060E02AF09A952F
:100BD000660F771F881FDAF7880F9695879597F924
:100BE000089597F99F6780E870E060E008959FEFAF
:100BF00080EC089500240A941616170618060906B4
:100C0000089500240A941216130614060506089582
:100C1000092E0394000C11F4882352F0BB0F40F40A
:100C2000BF2B11F460FF04C06F5F7F4F8F4F9F4F4A
:100C3000089557FD9058440F551F59F05F3F71F0CC
:100C40004795880F97FB991F61F09F3F79F0879533
:100C50000895121613061406551FF2CF4695F1DFBC
:100C600008C0161617061806991FF1CF869571054C
:100C7000610508940895E894BB2766277727CB0180
:100C800097F908950E9455060C9408060E94FA05EB
:100C900038F00E94010620F0952311F00C94F10524
:100CA0000C94F70511240C943C060E94190670F36D
:100CB000959FC1F3950F50E0551F629FF001729F01
:100CC000BB27F00DB11D639FAA27F00DB11DAA1F10
:100CD000649F6627B00DA11D661F829F2227B00D5D
:100CE000A11D621F739FB00DA11D621F839FA00DE8
:100CF000611D221F749F3327A00D611D231F849F38
:100D0000600D211D822F762F6A2F11249F5750408E
:100D10009AF0F1F088234AF0EE0FFF1FBB1F661F09
:100D2000771F881F91505040A9F79E3F510580F0D2
:100D30000C94F1050C943C065F3FE4F3983ED4F329
:100D4000869577956795B795F795E7959F5FC1F776
:100D5000FE2B880F911D9695879597F90895A1E22E
:100D60001A2EAA1BBB1BFD010DC0AA1FBB1FEE1F25
:100D7000FF1FA217B307E407F50720F0A21BB30B70
:100D8000E40BF50B661F771F881F991F1A9469F7EC
:100D900060957095809590959B01AC01BD01CF0148
:060DA0000895F894FFCF56
:100DA600010101010101010101010101010101012D
:100DB600010101010101010101010101010101011D
:100DC600010101010101010101010101010101010D
:100DD60001010101010101010101010101010101FD
:100DE600020202000000000080250003000000014E
:00000001FF
